{
  "_format": "hh-sol-artifact-1",
  "contractName": "MyEpicNFT",
  "sourceName": "contracts/myEpicNFT.sol",
  "abi": [
    {
      "inputs": [],
      "stateMutability": "nonpayable",
      "type": "constructor"
    },
    {
      "anonymous": false,
      "inputs": [
        {
          "indexed": true,
          "internalType": "address",
          "name": "owner",
          "type": "address"
        },
        {
          "indexed": true,
          "internalType": "address",
          "name": "approved",
          "type": "address"
        },
        {
          "indexed": true,
          "internalType": "uint256",
          "name": "tokenId",
          "type": "uint256"
        }
      ],
      "name": "Approval",
      "type": "event"
    },
    {
      "anonymous": false,
      "inputs": [
        {
          "indexed": true,
          "internalType": "address",
          "name": "owner",
          "type": "address"
        },
        {
          "indexed": true,
          "internalType": "address",
          "name": "operator",
          "type": "address"
        },
        {
          "indexed": false,
          "internalType": "bool",
          "name": "approved",
          "type": "bool"
        }
      ],
      "name": "ApprovalForAll",
      "type": "event"
    },
    {
      "anonymous": false,
      "inputs": [
        {
          "indexed": true,
          "internalType": "address",
          "name": "from",
          "type": "address"
        },
        {
          "indexed": true,
          "internalType": "address",
          "name": "to",
          "type": "address"
        },
        {
          "indexed": true,
          "internalType": "uint256",
          "name": "tokenId",
          "type": "uint256"
        }
      ],
      "name": "Transfer",
      "type": "event"
    },
    {
      "anonymous": false,
      "inputs": [
        {
          "indexed": false,
          "internalType": "address",
          "name": "sender",
          "type": "address"
        },
        {
          "indexed": false,
          "internalType": "uint256",
          "name": "token",
          "type": "uint256"
        }
      ],
      "name": "myEpicNFTMinted",
      "type": "event"
    },
    {
      "anonymous": false,
      "inputs": [
        {
          "indexed": false,
          "internalType": "address",
          "name": "sender",
          "type": "address"
        },
        {
          "indexed": false,
          "internalType": "uint256",
          "name": "total",
          "type": "uint256"
        }
      ],
      "name": "totalNftMinted",
      "type": "event"
    },
    {
      "inputs": [
        {
          "internalType": "address",
          "name": "to",
          "type": "address"
        },
        {
          "internalType": "uint256",
          "name": "tokenId",
          "type": "uint256"
        }
      ],
      "name": "approve",
      "outputs": [],
      "stateMutability": "nonpayable",
      "type": "function"
    },
    {
      "inputs": [
        {
          "internalType": "address",
          "name": "owner",
          "type": "address"
        }
      ],
      "name": "balanceOf",
      "outputs": [
        {
          "internalType": "uint256",
          "name": "",
          "type": "uint256"
        }
      ],
      "stateMutability": "view",
      "type": "function"
    },
    {
      "inputs": [
        {
          "internalType": "uint256",
          "name": "tokenId",
          "type": "uint256"
        }
      ],
      "name": "getApproved",
      "outputs": [
        {
          "internalType": "address",
          "name": "",
          "type": "address"
        }
      ],
      "stateMutability": "view",
      "type": "function"
    },
    {
      "inputs": [
        {
          "internalType": "address",
          "name": "owner",
          "type": "address"
        },
        {
          "internalType": "address",
          "name": "operator",
          "type": "address"
        }
      ],
      "name": "isApprovedForAll",
      "outputs": [
        {
          "internalType": "bool",
          "name": "",
          "type": "bool"
        }
      ],
      "stateMutability": "view",
      "type": "function"
    },
    {
      "inputs": [],
      "name": "makeAnEpicNFT",
      "outputs": [],
      "stateMutability": "nonpayable",
      "type": "function"
    },
    {
      "inputs": [],
      "name": "name",
      "outputs": [
        {
          "internalType": "string",
          "name": "",
          "type": "string"
        }
      ],
      "stateMutability": "view",
      "type": "function"
    },
    {
      "inputs": [
        {
          "internalType": "uint256",
          "name": "tokenId",
          "type": "uint256"
        }
      ],
      "name": "ownerOf",
      "outputs": [
        {
          "internalType": "address",
          "name": "",
          "type": "address"
        }
      ],
      "stateMutability": "view",
      "type": "function"
    },
    {
      "inputs": [
        {
          "internalType": "uint256",
          "name": "tokenId",
          "type": "uint256"
        }
      ],
      "name": "pickRandomFirstWord",
      "outputs": [
        {
          "internalType": "string",
          "name": "",
          "type": "string"
        }
      ],
      "stateMutability": "view",
      "type": "function"
    },
    {
      "inputs": [
        {
          "internalType": "uint256",
          "name": "tokenId",
          "type": "uint256"
        }
      ],
      "name": "pickRandomSecondWord",
      "outputs": [
        {
          "internalType": "string",
          "name": "",
          "type": "string"
        }
      ],
      "stateMutability": "view",
      "type": "function"
    },
    {
      "inputs": [
        {
          "internalType": "uint256",
          "name": "tokenId",
          "type": "uint256"
        }
      ],
      "name": "pickRandomThirdWord",
      "outputs": [
        {
          "internalType": "string",
          "name": "",
          "type": "string"
        }
      ],
      "stateMutability": "view",
      "type": "function"
    },
    {
      "inputs": [
        {
          "internalType": "address",
          "name": "from",
          "type": "address"
        },
        {
          "internalType": "address",
          "name": "to",
          "type": "address"
        },
        {
          "internalType": "uint256",
          "name": "tokenId",
          "type": "uint256"
        }
      ],
      "name": "safeTransferFrom",
      "outputs": [],
      "stateMutability": "nonpayable",
      "type": "function"
    },
    {
      "inputs": [
        {
          "internalType": "address",
          "name": "from",
          "type": "address"
        },
        {
          "internalType": "address",
          "name": "to",
          "type": "address"
        },
        {
          "internalType": "uint256",
          "name": "tokenId",
          "type": "uint256"
        },
        {
          "internalType": "bytes",
          "name": "_data",
          "type": "bytes"
        }
      ],
      "name": "safeTransferFrom",
      "outputs": [],
      "stateMutability": "nonpayable",
      "type": "function"
    },
    {
      "inputs": [
        {
          "internalType": "address",
          "name": "operator",
          "type": "address"
        },
        {
          "internalType": "bool",
          "name": "approved",
          "type": "bool"
        }
      ],
      "name": "setApprovalForAll",
      "outputs": [],
      "stateMutability": "nonpayable",
      "type": "function"
    },
    {
      "inputs": [
        {
          "internalType": "bytes4",
          "name": "interfaceId",
          "type": "bytes4"
        }
      ],
      "name": "supportsInterface",
      "outputs": [
        {
          "internalType": "bool",
          "name": "",
          "type": "bool"
        }
      ],
      "stateMutability": "view",
      "type": "function"
    },
    {
      "inputs": [],
      "name": "symbol",
      "outputs": [
        {
          "internalType": "string",
          "name": "",
          "type": "string"
        }
      ],
      "stateMutability": "view",
      "type": "function"
    },
    {
      "inputs": [
        {
          "internalType": "uint256",
          "name": "tokenId",
          "type": "uint256"
        }
      ],
      "name": "tokenURI",
      "outputs": [
        {
          "internalType": "string",
          "name": "",
          "type": "string"
        }
      ],
      "stateMutability": "view",
      "type": "function"
    },
    {
      "inputs": [
        {
          "internalType": "address",
          "name": "",
          "type": "address"
        }
      ],
      "name": "totalNft",
      "outputs": [
        {
          "internalType": "uint256",
          "name": "",
          "type": "uint256"
        }
      ],
      "stateMutability": "view",
      "type": "function"
    },
    {
      "inputs": [],
      "name": "totalNfts",
      "outputs": [],
      "stateMutability": "nonpayable",
      "type": "function"
    },
    {
      "inputs": [
        {
          "internalType": "address",
          "name": "from",
          "type": "address"
        },
        {
          "internalType": "address",
          "name": "to",
          "type": "address"
        },
        {
          "internalType": "uint256",
          "name": "tokenId",
          "type": "uint256"
        }
      ],
      "name": "transferFrom",
      "outputs": [],
      "stateMutability": "nonpayable",
      "type": "function"
    }
  ],
  "bytecode": "0x608060405260405180610160016040528061012f81526020016200443861012f913960089080519060200190620000389291906200067e565b506040518060c001604052806040518060400160405280600981526020017f46616e746173746963000000000000000000000000000000000000000000000081525081526020016040518060400160405280600481526020017f457069630000000000000000000000000000000000000000000000000000000081525081526020016040518060400160405280600881526020017f5465727269626c6500000000000000000000000000000000000000000000000081525081526020016040518060400160405280600581526020017f457575757500000000000000000000000000000000000000000000000000000081525081526020016040518060400160405280600681526020017f4b6861747269000000000000000000000000000000000000000000000000000081525081526020016040518060400160405280600481526020017f57696c64000000000000000000000000000000000000000000000000000000008152508152506009906006620001b69291906200070f565b506040518060c001604052806040518060400160405280600781526020017f576164617061760000000000000000000000000000000000000000000000000081525081526020016040518060400160405280600681526020017f53616d6f7361000000000000000000000000000000000000000000000000000081525081526020016040518060400160405280600581526020017f4d6973616c00000000000000000000000000000000000000000000000000000081525081526020016040518060400160405280600881526020017f5061764268616a6900000000000000000000000000000000000000000000000081525081526020016040518060400160405280600b81526020017f53616d626861727761646900000000000000000000000000000000000000000081525081526020016040518060400160405280600581526020017f4d6f6d6f73000000000000000000000000000000000000000000000000000000815250815250600a906006620003349291906200070f565b506040518060c001604052806040518060400160405280600481526020017f4d61726b0000000000000000000000000000000000000000000000000000000081525081526020016040518060400160405280600481526020017f456c6f6e0000000000000000000000000000000000000000000000000000000081525081526020016040518060400160405280600681526020017f53617479616d000000000000000000000000000000000000000000000000000081525081526020016040518060400160405280600481526020017f42696c6c0000000000000000000000000000000000000000000000000000000081525081526020016040518060400160405280600581526020017f537465766500000000000000000000000000000000000000000000000000000081525081526020016040518060400160405280600581526020017f4e6176616c000000000000000000000000000000000000000000000000000000815250815250600b906006620004b29291906200070f565b50348015620004c057600080fd5b506040518060400160405280600981526020017f636f736d69784e465400000000000000000000000000000000000000000000008152506040518060400160405280600681526020017f53617479616d00000000000000000000000000000000000000000000000000008152508160009080519060200190620005459291906200067e565b5080600190805190602001906200055e9291906200067e565b505050620005ac6040518060400160405280601e81526020017f54686973206973206d79204e465420636f6e74726163742e2057686f61210000815250620005b260201b620013f41760201c565b62000930565b6200065281604051602401620005c9919062000844565b6040516020818303038152906040527f41304fac000000000000000000000000000000000000000000000000000000007bffffffffffffffffffffffffffffffffffffffffffffffffffffffff19166020820180517bffffffffffffffffffffffffffffffffffffffffffffffffffffffff83818316178352505050506200065560201b60201c565b50565b60008151905060006a636f6e736f6c652e6c6f679050602083016000808483855afa5050505050565b8280546200068c90620008ba565b90600052602060002090601f016020900481019282620006b05760008555620006fc565b82601f10620006cb57805160ff1916838001178555620006fc565b82800160010185558215620006fc579182015b82811115620006fb578251825591602001919060010190620006de565b5b5090506200070b919062000776565b5090565b82805482825590600052602060002090810192821562000763579160200282015b8281111562000762578251829080519060200190620007519291906200067e565b509160200191906001019062000730565b5b50905062000772919062000795565b5090565b5b808211156200079157600081600090555060010162000777565b5090565b5b80821115620007b95760008181620007af9190620007bd565b5060010162000796565b5090565b508054620007cb90620008ba565b6000825580601f10620007df575062000800565b601f016020900490600052602060002090810190620007ff919062000776565b5b50565b6000620008108262000868565b6200081c818562000873565b93506200082e81856020860162000884565b62000839816200091f565b840191505092915050565b6000602082019050818103600083015262000860818462000803565b905092915050565b600081519050919050565b600082825260208201905092915050565b60005b83811015620008a457808201518184015260208101905062000887565b83811115620008b4576000848401525b50505050565b60006002820490506001821680620008d357607f821691505b60208210811415620008ea57620008e9620008f0565b5b50919050565b7f4e487b7100000000000000000000000000000000000000000000000000000000600052602260045260246000fd5b6000601f19601f8301169050919050565b613af880620009406000396000f3fe608060405234801561001057600080fd5b50600436106101215760003560e01c806370a08231116100ad578063b88d4fde11610071578063b88d4fde1461032c578063c575757a14610348578063c87b56dd14610378578063de9d132f146103a8578063e985e9c5146103b257610121565b806370a082311461026257806395d89b4114610292578063a22cb465146102b0578063b187301f146102cc578063b544b3f9146102fc57610121565b80630d4f9ddb116100f45780630d4f9ddb146101c057806323b872dd146101ca5780632de38d68146101e657806342842e0e146102165780636352211e1461023257610121565b806301ffc9a71461012657806306fdde0314610156578063081812fc14610174578063095ea7b3146101a4575b600080fd5b610140600480360381019061013b9190612723565b6103e2565b60405161014d9190613345565b60405180910390f35b61015e6104c4565b60405161016b9190613360565b60405180910390f35b61018e60048036038101906101899190612775565b610556565b60405161019b91906132b5565b60405180910390f35b6101be60048036038101906101b991906126e7565b6105db565b005b6101c86106f3565b005b6101e460048036038101906101df91906125e1565b61073e565b005b61020060048036038101906101fb9190612775565b61079e565b60405161020d9190613360565b60405180910390f35b610230600480360381019061022b91906125e1565b6108bc565b005b61024c60048036038101906102479190612775565b6108dc565b60405161025991906132b5565b60405180910390f35b61027c6004803603810190610277919061257c565b61098e565b60405161028991906135c0565b60405180910390f35b61029a610a46565b6040516102a79190613360565b60405180910390f35b6102ca60048036038101906102c591906126ab565b610ad8565b005b6102e660048036038101906102e19190612775565b610c59565b6040516102f39190613360565b60405180910390f35b6103166004803603810190610311919061257c565b610d77565b60405161032391906135c0565b60405180910390f35b61034660048036038101906103419190612630565b610d8f565b005b610362600480360381019061035d9190612775565b610df1565b60405161036f9190613360565b60405180910390f35b610392600480360381019061038d9190612775565b610f0f565b60405161039f9190613360565b60405180910390f35b6103b0611061565b005b6103cc60048036038101906103c791906125a5565b611360565b6040516103d99190613345565b60405180910390f35b60007f80ac58cd000000000000000000000000000000000000000000000000000000007bffffffffffffffffffffffffffffffffffffffffffffffffffffffff1916827bffffffffffffffffffffffffffffffffffffffffffffffffffffffff191614806104ad57507f5b5e139f000000000000000000000000000000000000000000000000000000007bffffffffffffffffffffffffffffffffffffffffffffffffffffffff1916827bffffffffffffffffffffffffffffffffffffffffffffffffffffffff1916145b806104bd57506104bc8261148d565b5b9050919050565b6060600080546104d390613888565b80601f01602080910402602001604051908101604052809291908181526020018280546104ff90613888565b801561054c5780601f106105215761010080835404028352916020019161054c565b820191906000526020600020905b81548152906001019060200180831161052f57829003601f168201915b5050505050905090565b6000610561826114f7565b6105a0576040517f08c379a000000000000000000000000000000000000000000000000000000000815260040161059790613520565b60405180910390fd5b6004600083815260200190815260200160002060009054906101000a900473ffffffffffffffffffffffffffffffffffffffff169050919050565b60006105e6826108dc565b90508073ffffffffffffffffffffffffffffffffffffffff168373ffffffffffffffffffffffffffffffffffffffff161415610657576040517f08c379a000000000000000000000000000000000000000000000000000000000815260040161064e90613580565b60405180910390fd5b8073ffffffffffffffffffffffffffffffffffffffff16610676611563565b73ffffffffffffffffffffffffffffffffffffffff1614806106a557506106a48161069f611563565b611360565b5b6106e4576040517f08c379a00000000000000000000000000000000000000000000000000000000081526004016106db90613460565b60405180910390fd5b6106ee838361156b565b505050565b61073c600c60003373ffffffffffffffffffffffffffffffffffffffff1673ffffffffffffffffffffffffffffffffffffffff1681526020019081526020016000205433611624565b565b61074f610749611563565b826116c0565b61078e576040517f08c379a0000000000000000000000000000000000000000000000000000000008152600401610785906135a0565b60405180910390fd5b61079983838361179e565b505050565b606060006107d26107ae846119fa565b6040516020016107be9190613271565b604051602081830303815290604052611ba7565b9050600980549050816107e59190613903565b905060098181548110610821577f4e487b7100000000000000000000000000000000000000000000000000000000600052603260045260246000fd5b90600052602060002001805461083690613888565b80601f016020809104026020016040519081016040528092919081815260200182805461086290613888565b80156108af5780601f10610884576101008083540402835291602001916108af565b820191906000526020600020905b81548152906001019060200180831161089257829003601f168201915b5050505050915050919050565b6108d783838360405180602001604052806000815250610d8f565b505050565b6000806002600084815260200190815260200160002060009054906101000a900473ffffffffffffffffffffffffffffffffffffffff169050600073ffffffffffffffffffffffffffffffffffffffff168173ffffffffffffffffffffffffffffffffffffffff161415610985576040517f08c379a000000000000000000000000000000000000000000000000000000000815260040161097c906134a0565b60405180910390fd5b80915050919050565b60008073ffffffffffffffffffffffffffffffffffffffff168273ffffffffffffffffffffffffffffffffffffffff1614156109ff576040517f08c379a00000000000000000000000000000000000000000000000000000000081526004016109f690613480565b60405180910390fd5b600360008373ffffffffffffffffffffffffffffffffffffffff1673ffffffffffffffffffffffffffffffffffffffff168152602001908152602001600020549050919050565b606060018054610a5590613888565b80601f0160208091040260200160405190810160405280929190818152602001828054610a8190613888565b8015610ace5780601f10610aa357610100808354040283529160200191610ace565b820191906000526020600020905b815481529060010190602001808311610ab157829003601f168201915b5050505050905090565b610ae0611563565b73ffffffffffffffffffffffffffffffffffffffff168273ffffffffffffffffffffffffffffffffffffffff161415610b4e576040517f08c379a0000000000000000000000000000000000000000000000000000000008152600401610b4590613420565b60405180910390fd5b8060056000610b5b611563565b73ffffffffffffffffffffffffffffffffffffffff1673ffffffffffffffffffffffffffffffffffffffff16815260200190815260200160002060008473ffffffffffffffffffffffffffffffffffffffff1673ffffffffffffffffffffffffffffffffffffffff16815260200190815260200160002060006101000a81548160ff0219169083151502179055508173ffffffffffffffffffffffffffffffffffffffff16610c08611563565b73ffffffffffffffffffffffffffffffffffffffff167f17307eab39ab6107e8899845ad3d59bd9653f200f220920489ca2b5937696c3183604051610c4d9190613345565b60405180910390a35050565b60606000610c8d610c69846119fa565b604051602001610c79919061320a565b604051602081830303815290604052611ba7565b9050600a8054905081610ca09190613903565b9050600a8181548110610cdc577f4e487b7100000000000000000000000000000000000000000000000000000000600052603260045260246000fd5b906000526020600020018054610cf190613888565b80601f0160208091040260200160405190810160405280929190818152602001828054610d1d90613888565b8015610d6a5780601f10610d3f57610100808354040283529160200191610d6a565b820191906000526020600020905b815481529060010190602001808311610d4d57829003601f168201915b5050505050915050919050565b600c6020528060005260406000206000915090505481565b610da0610d9a611563565b836116c0565b610ddf576040517f08c379a0000000000000000000000000000000000000000000000000000000008152600401610dd6906135a0565b60405180910390fd5b610deb84848484611bda565b50505050565b60606000610e25610e01846119fa565b604051602001610e1191906131e8565b604051602081830303815290604052611ba7565b9050600b8054905081610e389190613903565b9050600b8181548110610e74577f4e487b7100000000000000000000000000000000000000000000000000000000600052603260045260246000fd5b906000526020600020018054610e8990613888565b80601f0160208091040260200160405190810160405280929190818152602001828054610eb590613888565b8015610f025780601f10610ed757610100808354040283529160200191610f02565b820191906000526020600020905b815481529060010190602001808311610ee557829003601f168201915b5050505050915050919050565b6060610f1a826114f7565b610f59576040517f08c379a0000000000000000000000000000000000000000000000000000000008152600401610f5090613500565b60405180910390fd5b6000600660008481526020019081526020016000208054610f7990613888565b80601f0160208091040260200160405190810160405280929190818152602001828054610fa590613888565b8015610ff25780601f10610fc757610100808354040283529160200191610ff2565b820191906000526020600020905b815481529060010190602001808311610fd557829003601f168201915b505050505090506000611003611c36565b905060008151141561101957819250505061105c565b60008251111561104e578082604051602001611036929190613164565b6040516020818303038152906040529250505061105c565b61105784611c4d565b925050505b919050565b600061106d6007611cf4565b9050600061107a8261079e565b9050600061108783610c59565b9050600061109484610df1565b905060008383836040516020016110ad93929190613188565b604051602081830303815290604052905060006008826040516020016110d49291906131b9565b60405160208183030381529060405290506000611119836110f484611d02565b60405160200161110592919061322c565b604051602081830303815290604052611d02565b905060008160405160200161112e9190613293565b604051602081830303815290604052905061117d6040518060400160405280601581526020017f0a2d2d2d2d2d2d2d2d2d2d2d2d2d2d2d2d2d2d2d2d00000000000000000000008152506113f4565b611186816113f4565b6111c46040518060400160405280601581526020017f2d2d2d2d2d2d2d2d2d2d2d2d2d2d2d2d2d2d2d2d0a00000000000000000000008152506113f4565b6111ce3389611ec0565b6111d88882611ede565b6111e26007611f52565b611205604051806060016040528060258152602001613a5e602591398933611f68565b6001600c60003373ffffffffffffffffffffffffffffffffffffffff1673ffffffffffffffffffffffffffffffffffffffff168152602001908152602001600020600082825461125591906136bd565b925050819055506112a5600c60003373ffffffffffffffffffffffffffffffffffffffff1673ffffffffffffffffffffffffffffffffffffffff1681526020019081526020016000205433611624565b7f12d2d9dd9dfcea902cec7b243dc7b45d0ab233b6fdf38d967d7507f64acd4cca33896040516112d692919061331c565b60405180910390a17f8fdab3e211d0cde5eb91a740c0f422383e56b6e353fd57f325089bc78281bd2133600c60003373ffffffffffffffffffffffffffffffffffffffff1673ffffffffffffffffffffffffffffffffffffffff1681526020019081526020016000205460405161134e92919061331c565b60405180910390a15050505050505050565b6000600560008473ffffffffffffffffffffffffffffffffffffffff1673ffffffffffffffffffffffffffffffffffffffff16815260200190815260200160002060008373ffffffffffffffffffffffffffffffffffffffff1673ffffffffffffffffffffffffffffffffffffffff16815260200190815260200160002060009054906101000a900460ff16905092915050565b61148a816040516024016114089190613360565b6040516020818303038152906040527f41304fac000000000000000000000000000000000000000000000000000000007bffffffffffffffffffffffffffffffffffffffffffffffffffffffff19166020820180517bffffffffffffffffffffffffffffffffffffffffffffffffffffffff8381831617835250505050612007565b50565b60007f01ffc9a7000000000000000000000000000000000000000000000000000000007bffffffffffffffffffffffffffffffffffffffffffffffffffffffff1916827bffffffffffffffffffffffffffffffffffffffffffffffffffffffff1916149050919050565b60008073ffffffffffffffffffffffffffffffffffffffff166002600084815260200190815260200160002060009054906101000a900473ffffffffffffffffffffffffffffffffffffffff1673ffffffffffffffffffffffffffffffffffffffff1614159050919050565b600033905090565b816004600083815260200190815260200160002060006101000a81548173ffffffffffffffffffffffffffffffffffffffff021916908373ffffffffffffffffffffffffffffffffffffffff160217905550808273ffffffffffffffffffffffffffffffffffffffff166115de836108dc565b73ffffffffffffffffffffffffffffffffffffffff167f8c5be1e5ebec7d5bd14f71427d1e84f3dd0314c0f7b2291e5b200ac8c7c3b92560405160405180910390a45050565b6116bc828260405160240161163a9291906135db565b6040516020818303038152906040527f58eb860c000000000000000000000000000000000000000000000000000000007bffffffffffffffffffffffffffffffffffffffffffffffffffffffff19166020820180517bffffffffffffffffffffffffffffffffffffffffffffffffffffffff8381831617835250505050612007565b5050565b60006116cb826114f7565b61170a576040517f08c379a000000000000000000000000000000000000000000000000000000000815260040161170190613440565b60405180910390fd5b6000611715836108dc565b90508073ffffffffffffffffffffffffffffffffffffffff168473ffffffffffffffffffffffffffffffffffffffff16148061178457508373ffffffffffffffffffffffffffffffffffffffff1661176c84610556565b73ffffffffffffffffffffffffffffffffffffffff16145b8061179557506117948185611360565b5b91505092915050565b8273ffffffffffffffffffffffffffffffffffffffff166117be826108dc565b73ffffffffffffffffffffffffffffffffffffffff1614611814576040517f08c379a000000000000000000000000000000000000000000000000000000000815260040161180b90613540565b60405180910390fd5b600073ffffffffffffffffffffffffffffffffffffffff168273ffffffffffffffffffffffffffffffffffffffff161415611884576040517f08c379a000000000000000000000000000000000000000000000000000000000815260040161187b90613400565b60405180910390fd5b61188f838383612030565b61189a60008261156b565b6001600360008573ffffffffffffffffffffffffffffffffffffffff1673ffffffffffffffffffffffffffffffffffffffff16815260200190815260200160002060008282546118ea919061379e565b925050819055506001600360008473ffffffffffffffffffffffffffffffffffffffff1673ffffffffffffffffffffffffffffffffffffffff168152602001908152602001600020600082825461194191906136bd565b92505081905550816002600083815260200190815260200160002060006101000a81548173ffffffffffffffffffffffffffffffffffffffff021916908373ffffffffffffffffffffffffffffffffffffffff160217905550808273ffffffffffffffffffffffffffffffffffffffff168473ffffffffffffffffffffffffffffffffffffffff167fddf252ad1be2c89b69c2b068fc378daa952ba7f163c4a11628f55a4df523b3ef60405160405180910390a4505050565b60606000821415611a42576040518060400160405280600181526020017f30000000000000000000000000000000000000000000000000000000000000008152509050611ba2565b600082905060005b60008214611a74578080611a5d906138ba565b915050600a82611a6d9190613713565b9150611a4a565b60008167ffffffffffffffff811115611ab6577f4e487b7100000000000000000000000000000000000000000000000000000000600052604160045260246000fd5b6040519080825280601f01601f191660200182016040528015611ae85781602001600182028036833780820191505090505b5090505b60008514611b9b57600182611b01919061379e565b9150600a85611b109190613903565b6030611b1c91906136bd565b60f81b818381518110611b58577f4e487b7100000000000000000000000000000000000000000000000000000000600052603260045260246000fd5b60200101907effffffffffffffffffffffffffffffffffffffffffffffffffffffffffffff1916908160001a905350600a85611b949190613713565b9450611aec565b8093505050505b919050565b600081604051602001611bba919061314d565b6040516020818303038152906040528051906020012060001c9050919050565b611be584848461179e565b611bf184848484612035565b611c30576040517f08c379a0000000000000000000000000000000000000000000000000000000008152600401611c27906133c0565b60405180910390fd5b50505050565b606060405180602001604052806000815250905090565b6060611c58826114f7565b611c97576040517f08c379a0000000000000000000000000000000000000000000000000000000008152600401611c8e90613560565b60405180910390fd5b6000611ca1611c36565b90506000815111611cc15760405180602001604052806000815250611cec565b80611ccb846119fa565b604051602001611cdc929190613164565b6040516020818303038152906040525b915050919050565b600081600001549050919050565b60606000825190506000811415611d2b5760405180602001604052806000815250915050611ebb565b60006003600283611d3c91906136bd565b611d469190613713565b6004611d529190613744565b90506000602082611d6391906136bd565b67ffffffffffffffff811115611da2577f4e487b7100000000000000000000000000000000000000000000000000000000600052604160045260246000fd5b6040519080825280601f01601f191660200182016040528015611dd45781602001600182028036833780820191505090505b5090506000604051806060016040528060408152602001613a83604091399050600181016020830160005b86811015611e785760038101905062ffffff818a015116603f8160121c168401518060081b905060ff603f83600c1c1686015116810190508060081b905060ff603f8360061c1686015116810190508060081b905060ff603f831686015116810190508060e01b90508084526004840193505050611dff565b506003860660018114611e925760028114611ea257611ead565b613d3d60f01b6002830352611ead565b603d60f81b60018303525b508484525050819450505050505b919050565b611eda8282604051806020016040528060008152506121cc565b5050565b611ee7826114f7565b611f26576040517f08c379a0000000000000000000000000000000000000000000000000000000008152600401611f1d906134c0565b60405180910390fd5b80600660008481526020019081526020016000209080519060200190611f4d929190612408565b505050565b6001816000016000828254019250508190555050565b612002838383604051602401611f8093929190613382565b6040516020818303038152906040527fe3849f79000000000000000000000000000000000000000000000000000000007bffffffffffffffffffffffffffffffffffffffffffffffffffffffff19166020820180517bffffffffffffffffffffffffffffffffffffffffffffffffffffffff8381831617835250505050612007565b505050565b60008151905060006a636f6e736f6c652e6c6f679050602083016000808483855afa5050505050565b505050565b60006120568473ffffffffffffffffffffffffffffffffffffffff16612227565b156121bf578373ffffffffffffffffffffffffffffffffffffffff1663150b7a0261207f611563565b8786866040518563ffffffff1660e01b81526004016120a194939291906132d0565b602060405180830381600087803b1580156120bb57600080fd5b505af19250505080156120ec57506040513d601f19601f820116820180604052508101906120e9919061274c565b60015b61216f573d806000811461211c576040519150601f19603f3d011682016040523d82523d6000602084013e612121565b606091505b50600081511415612167576040517f08c379a000000000000000000000000000000000000000000000000000000000815260040161215e906133c0565b60405180910390fd5b805181602001fd5b63150b7a0260e01b7bffffffffffffffffffffffffffffffffffffffffffffffffffffffff1916817bffffffffffffffffffffffffffffffffffffffffffffffffffffffff1916149150506121c4565b600190505b949350505050565b6121d6838361223a565b6121e36000848484612035565b612222576040517f08c379a0000000000000000000000000000000000000000000000000000000008152600401612219906133c0565b60405180910390fd5b505050565b600080823b905060008111915050919050565b600073ffffffffffffffffffffffffffffffffffffffff168273ffffffffffffffffffffffffffffffffffffffff1614156122aa576040517f08c379a00000000000000000000000000000000000000000000000000000000081526004016122a1906134e0565b60405180910390fd5b6122b3816114f7565b156122f3576040517f08c379a00000000000000000000000000000000000000000000000000000000081526004016122ea906133e0565b60405180910390fd5b6122ff60008383612030565b6001600360008473ffffffffffffffffffffffffffffffffffffffff1673ffffffffffffffffffffffffffffffffffffffff168152602001908152602001600020600082825461234f91906136bd565b92505081905550816002600083815260200190815260200160002060006101000a81548173ffffffffffffffffffffffffffffffffffffffff021916908373ffffffffffffffffffffffffffffffffffffffff160217905550808273ffffffffffffffffffffffffffffffffffffffff16600073ffffffffffffffffffffffffffffffffffffffff167fddf252ad1be2c89b69c2b068fc378daa952ba7f163c4a11628f55a4df523b3ef60405160405180910390a45050565b82805461241490613888565b90600052602060002090601f016020900481019282612436576000855561247d565b82601f1061244f57805160ff191683800117855561247d565b8280016001018555821561247d579182015b8281111561247c578251825591602001919060010190612461565b5b50905061248a919061248e565b5090565b5b808211156124a757600081600090555060010161248f565b5090565b60006124be6124b984613635565b613604565b9050828152602081018484840111156124d657600080fd5b6124e1848285613846565b509392505050565b6000813590506124f881613a01565b92915050565b60008135905061250d81613a18565b92915050565b60008135905061252281613a2f565b92915050565b60008151905061253781613a2f565b92915050565b600082601f83011261254e57600080fd5b813561255e8482602086016124ab565b91505092915050565b60008135905061257681613a46565b92915050565b60006020828403121561258e57600080fd5b600061259c848285016124e9565b91505092915050565b600080604083850312156125b857600080fd5b60006125c6858286016124e9565b92505060206125d7858286016124e9565b9150509250929050565b6000806000606084860312156125f657600080fd5b6000612604868287016124e9565b9350506020612615868287016124e9565b925050604061262686828701612567565b9150509250925092565b6000806000806080858703121561264657600080fd5b6000612654878288016124e9565b9450506020612665878288016124e9565b935050604061267687828801612567565b925050606085013567ffffffffffffffff81111561269357600080fd5b61269f8782880161253d565b91505092959194509250565b600080604083850312156126be57600080fd5b60006126cc858286016124e9565b92505060206126dd858286016124fe565b9150509250929050565b600080604083850312156126fa57600080fd5b6000612708858286016124e9565b925050602061271985828601612567565b9150509250929050565b60006020828403121561273557600080fd5b600061274384828501612513565b91505092915050565b60006020828403121561275e57600080fd5b600061276c84828501612528565b91505092915050565b60006020828403121561278757600080fd5b600061279584828501612567565b91505092915050565b6127a7816137d2565b82525050565b6127b6816137e4565b82525050565b60006127c78261367a565b6127d18185613690565b93506127e1818560208601613855565b6127ea816139f0565b840191505092915050565b600061280082613685565b61280a81856136a1565b935061281a818560208601613855565b612823816139f0565b840191505092915050565b600061283982613685565b61284381856136b2565b9350612853818560208601613855565b80840191505092915050565b6000815461286c81613888565b61287681866136b2565b9450600182166000811461289157600181146128a2576128d5565b60ff198316865281860193506128d5565b6128ab85613665565b60005b838110156128cd578154818901526001820191506020810190506128ae565b838801955050505b50505092915050565b60006128eb6032836136a1565b91507f4552433732313a207472616e7366657220746f206e6f6e20455243373231526560008301527f63656976657220696d706c656d656e74657200000000000000000000000000006020830152604082019050919050565b6000612951601c836136a1565b91507f4552433732313a20746f6b656e20616c7265616479206d696e746564000000006000830152602082019050919050565b6000612991600a836136b2565b91507f54484952445f574f5244000000000000000000000000000000000000000000006000830152600a82019050919050565b60006129d16024836136a1565b91507f4552433732313a207472616e7366657220746f20746865207a65726f2061646460008301527f72657373000000000000000000000000000000000000000000000000000000006020830152604082019050919050565b6000612a376019836136a1565b91507f4552433732313a20617070726f766520746f2063616c6c6572000000000000006000830152602082019050919050565b6000612a77600b836136b2565b91507f5345434f4e445f574f52440000000000000000000000000000000000000000006000830152600b82019050919050565b6000612ab7602c836136a1565b91507f4552433732313a206f70657261746f7220717565727920666f72206e6f6e657860008301527f697374656e7420746f6b656e00000000000000000000000000000000000000006020830152604082019050919050565b6000612b1d600d836136b2565b91507f3c2f746578743e3c2f7376673e000000000000000000000000000000000000006000830152600d82019050919050565b6000612b5d6038836136a1565b91507f4552433732313a20617070726f76652063616c6c6572206973206e6f74206f7760008301527f6e6572206e6f7220617070726f76656420666f7220616c6c00000000000000006020830152604082019050919050565b6000612bc3602a836136a1565b91507f4552433732313a2062616c616e636520717565727920666f7220746865207a6560008301527f726f2061646472657373000000000000000000000000000000000000000000006020830152604082019050919050565b6000612c296029836136a1565b91507f4552433732313a206f776e657220717565727920666f72206e6f6e657869737460008301527f656e7420746f6b656e00000000000000000000000000000000000000000000006020830152604082019050919050565b6000612c8f602e836136a1565b91507f45524337323155524953746f726167653a2055524920736574206f66206e6f6e60008301527f6578697374656e7420746f6b656e0000000000000000000000000000000000006020830152604082019050919050565b6000612cf56002836136b2565b91507f227d0000000000000000000000000000000000000000000000000000000000006000830152600282019050919050565b6000612d356020836136a1565b91507f4552433732313a206d696e7420746f20746865207a65726f20616464726573736000830152602082019050919050565b6000612d756031836136a1565b91507f45524337323155524953746f726167653a2055524920717565727920666f722060008301527f6e6f6e6578697374656e7420746f6b656e0000000000000000000000000000006020830152604082019050919050565b6000612ddb602c836136a1565b91507f4552433732313a20617070726f76656420717565727920666f72206e6f6e657860008301527f697374656e7420746f6b656e00000000000000000000000000000000000000006020830152604082019050919050565b6000612e416029836136a1565b91507f4552433732313a207472616e73666572206f6620746f6b656e2074686174206960008301527f73206e6f74206f776e00000000000000000000000000000000000000000000006020830152604082019050919050565b6000612ea7602f836136a1565b91507f4552433732314d657461646174613a2055524920717565727920666f72206e6f60008301527f6e6578697374656e7420746f6b656e00000000000000000000000000000000006020830152604082019050919050565b6000612f0d600a836136b2565b91507f7b226e616d65223a2022000000000000000000000000000000000000000000006000830152600a82019050919050565b6000612f4d6021836136a1565b91507f4552433732313a20617070726f76616c20746f2063757272656e74206f776e6560008301527f72000000000000000000000000000000000000000000000000000000000000006020830152604082019050919050565b6000612fb36061836136b2565b91507f222c20226465736372697074696f6e223a20224120486967686c79204163636c60008301527f61696d656420436f6c6c656374696f6e2062792053617479616d222c2022696d60208301527f616765223a2022646174613a696d6167652f7376672b786d6c3b62617365363460408301527f2c000000000000000000000000000000000000000000000000000000000000006060830152606182019050919050565b6000613065600a836136b2565b91507f46495253545f574f5244000000000000000000000000000000000000000000006000830152600a82019050919050565b60006130a5601d836136b2565b91507f646174613a6170706c69636174696f6e2f6a736f6e3b6261736536342c0000006000830152601d82019050919050565b60006130e56031836136a1565b91507f4552433732313a207472616e736665722063616c6c6572206973206e6f74206f60008301527f776e6572206e6f7220617070726f7665640000000000000000000000000000006020830152604082019050919050565b6131478161383c565b82525050565b6000613159828461282e565b915081905092915050565b6000613170828561282e565b915061317c828461282e565b91508190509392505050565b6000613194828661282e565b91506131a0828561282e565b91506131ac828461282e565b9150819050949350505050565b60006131c5828561285f565b91506131d1828461282e565b91506131dc82612b10565b91508190509392505050565b60006131f382612984565b91506131ff828461282e565b915081905092915050565b600061321582612a6a565b9150613221828461282e565b915081905092915050565b600061323782612f00565b9150613243828561282e565b915061324e82612fa6565b915061325a828461282e565b915061326582612ce8565b91508190509392505050565b600061327c82613058565b9150613288828461282e565b915081905092915050565b600061329e82613098565b91506132aa828461282e565b915081905092915050565b60006020820190506132ca600083018461279e565b92915050565b60006080820190506132e5600083018761279e565b6132f2602083018661279e565b6132ff604083018561313e565b818103606083015261331181846127bc565b905095945050505050565b6000604082019050613331600083018561279e565b61333e602083018461313e565b9392505050565b600060208201905061335a60008301846127ad565b92915050565b6000602082019050818103600083015261337a81846127f5565b905092915050565b6000606082019050818103600083015261339c81866127f5565b90506133ab602083018561313e565b6133b8604083018461279e565b949350505050565b600060208201905081810360008301526133d9816128de565b9050919050565b600060208201905081810360008301526133f981612944565b9050919050565b60006020820190508181036000830152613419816129c4565b9050919050565b6000602082019050818103600083015261343981612a2a565b9050919050565b6000602082019050818103600083015261345981612aaa565b9050919050565b6000602082019050818103600083015261347981612b50565b9050919050565b6000602082019050818103600083015261349981612bb6565b9050919050565b600060208201905081810360008301526134b981612c1c565b9050919050565b600060208201905081810360008301526134d981612c82565b9050919050565b600060208201905081810360008301526134f981612d28565b9050919050565b6000602082019050818103600083015261351981612d68565b9050919050565b6000602082019050818103600083015261353981612dce565b9050919050565b6000602082019050818103600083015261355981612e34565b9050919050565b6000602082019050818103600083015261357981612e9a565b9050919050565b6000602082019050818103600083015261359981612f40565b9050919050565b600060208201905081810360008301526135b9816130d8565b9050919050565b60006020820190506135d5600083018461313e565b92915050565b60006040820190506135f0600083018561313e565b6135fd602083018461279e565b9392505050565b6000604051905081810181811067ffffffffffffffff8211171561362b5761362a6139c1565b5b8060405250919050565b600067ffffffffffffffff8211156136505761364f6139c1565b5b601f19601f8301169050602081019050919050565b60008190508160005260206000209050919050565b600081519050919050565b600081519050919050565b600082825260208201905092915050565b600082825260208201905092915050565b600081905092915050565b60006136c88261383c565b91506136d38361383c565b9250827fffffffffffffffffffffffffffffffffffffffffffffffffffffffffffffffff0382111561370857613707613934565b5b828201905092915050565b600061371e8261383c565b91506137298361383c565b92508261373957613738613963565b5b828204905092915050565b600061374f8261383c565b915061375a8361383c565b9250817fffffffffffffffffffffffffffffffffffffffffffffffffffffffffffffffff048311821515161561379357613792613934565b5b828202905092915050565b60006137a98261383c565b91506137b48361383c565b9250828210156137c7576137c6613934565b5b828203905092915050565b60006137dd8261381c565b9050919050565b60008115159050919050565b60007fffffffff0000000000000000000000000000000000000000000000000000000082169050919050565b600073ffffffffffffffffffffffffffffffffffffffff82169050919050565b6000819050919050565b82818337600083830152505050565b60005b83811015613873578082015181840152602081019050613858565b83811115613882576000848401525b50505050565b600060028204905060018216806138a057607f821691505b602082108114156138b4576138b3613992565b5b50919050565b60006138c58261383c565b91507fffffffffffffffffffffffffffffffffffffffffffffffffffffffffffffffff8214156138f8576138f7613934565b5b600182019050919050565b600061390e8261383c565b91506139198361383c565b92508261392957613928613963565b5b828206905092915050565b7f4e487b7100000000000000000000000000000000000000000000000000000000600052601160045260246000fd5b7f4e487b7100000000000000000000000000000000000000000000000000000000600052601260045260246000fd5b7f4e487b7100000000000000000000000000000000000000000000000000000000600052602260045260246000fd5b7f4e487b7100000000000000000000000000000000000000000000000000000000600052604160045260246000fd5b6000601f19601f8301169050919050565b613a0a816137d2565b8114613a1557600080fd5b50565b613a21816137e4565b8114613a2c57600080fd5b50565b613a38816137f0565b8114613a4357600080fd5b50565b613a4f8161383c565b8114613a5a57600080fd5b5056fe416e204e465420772f20494420257320686173206265656e206d696e74656420746f2025734142434445464748494a4b4c4d4e4f505152535455565758595a6162636465666768696a6b6c6d6e6f707172737475767778797a303132333435363738392b2fa2646970667358221220ec22edf8c851c79a7198e56780cd8896b271f0a9066df25157ab903e54c414d464736f6c634300080000333c73766720786d6c6e733d27687474703a2f2f7777772e77332e6f72672f323030302f73766727207072657365727665417370656374526174696f3d27784d696e594d696e206d656574272076696577426f783d273020302033353020333530273e3c7374796c653e2e62617365207b2066696c6c3a2077686974653b20666f6e742d66616d696c793a2073657269663b20666f6e742d73697a653a20323470783b207d3c2f7374796c653e3c726563742077696474683d273130302527206865696768743d2731303025272066696c6c3d27626c61636b27202f3e3c7465787420783d273530252720793d273530252720636c6173733d27626173652720646f6d696e616e742d626173656c696e653d276d6964646c652720746578742d616e63686f723d276d6964646c65273e",
  "linkReferences": {},
  "deployedLinkReferences": {}
}